:1000000000000420750300005D0300005F03000092
:1000100061030000630300006503000000000000AE
:100020000000000000000000000000006703000066
:1000300069030000000000006B0300006D03000076
:100040006F0300006F0300006F0300006F030000E8
:100050006F0300006F0300006F0300006F030000D8
:100060006F0300006F0300006F0300006F030000C8
:100070006F0300006F0300006F0300006F030000B8
:100080006F0300006F0300006F0300006F030000A8
:100090006F0300006F0300006F0300006F03000098
:1000A0006F0300006F0300006F0300006F03000088
:1000B0006F0300006F03000000000000000000005C
:1000C0006F0300006F0300006F0300006F03000068
:1000D0006F0300006F0300006F0300006F03000058
:1000E0006F0300006F0300006F03000000000000BA
:1000F000000000006F030000000000006F0300001C
:1001000000000000000000000000000000000000EF
:1001100000000000000000000000000000000000DF
:1001200000000000000000000000000000000000CF
:1001300000000000000000000000000000000000BF
:1001400000000000000000000000000000000000AF
:10015000000000000000000000000000000000009F
:10016000000000000000000000000000000000008F
:10017000000000000000000000000000000000007F
:10018000000000000000000000000000000000006F
:10019000000000000000000000000000000000005F
:1001A000000000000000000000000000000000004F
:1001B000000000000000000000000000000000003F
:1001C000000000000000000000000000000000002F
:1001D000000000000000000000000000000000001F
:1001E000000000000000000000000000000000000F
:1001F00000000000000000000000000000000000FF
:10020000354936480A1A02D0072291438D463449AF
:1002100034480A1A06D00722914381F30988022242
:1002200082F3148830483149314A00F044F83148AB
:100230003149324A00F03FF831483249324A00F041
:100240003AF832483249334A00F035F832483349F7
:10025000334A00F030F833483349344A00F02BF881
:1002600033483449344A00F026F8344834490022EF
:1002700000F02CF833483449002200F027F83348C6
:100280003349091A082902DB002202604160314A21
:1002900090471F481F49884205D00268043003B4C4
:1002A000904703BCF7E700208646EC46002000217B
:1002B000294A9047FEE7884207D0521A05D00378B2
:1002C00001300B700131013AF9D17047884202D0F8
:1002D00002700130FAE770470000042000E00320BC
:1002E000000004200000042088120000000000200C
:1002F00004000020D0030000D00300008A0F00009B
:100300008812000000000020000000208C0F000078
:100310008C0F00008C0F00008C0F00008C0F000071
:100320008C0F00008C0F00008C0F00008812000062
:100330008C120000040000200400002004000020B3
:10034000080000200800002008000020080000200D
:10035000082000209D0300008D040000FEE7FEE75A
:10036000FEE7FEE7FEE7FEE7FEE7FEE7FEE7FEE765
:1003700000F002B8FFF7FCBF0F484FF007018843B9
:1003800085460E4880470E48016841F470010160BF
:10039000BFF34F8FBFF36F8FFFF732BF09480A4992
:1003A0000A4A884207D0521A05D0037801300B70F0
:1003B0000131013AF9D17047000004207D050000A9
:1003C00088ED00E08C0F00000000002000000020FD
:1003D000074B1B5C1F2B86BF064903F01F034FF022
:1003E000A041012202FA03F3C1F80835704700BFAB
:1003F0008C0F00000003005008B50020FFF7E8FF55
:100400000120FFF7E5FF0220FFF7E2FFBDE808400B
:100410000320FFF7DDBF00000A4B185C1F288ABFCE
:10042000094B4FF0A04300F01F00D3F80425012131
:10043000814021EA02000A40C3F80805C3F80C25F0
:10044000704700BF8C0F000000030050C20710B5BA
:1004500004460CD54FF0A0430322C3F85C27C3F831
:100460006027C3F83C27C3F84027FFF7C5FFA30761
:100470000AD54FF0A0430C22C3F82C27C3F830272D
:10048000C3F86027C3F8642710BD000070B50120D1
:10049000FFF7DCFF094D00F013F845F001050024DB
:1004A0002046FFF7B9FF4FF4FA764FF47A40A84799
:1004B000013EFAD10134042CF2D1F0E7900F000094
:1004C00010B5EAB04FF4B072002112A800F02AFD76
:1004D000022300210093462202AB084600F008FBED
:1004E000F8B9BDF8083003F00303032B18D132A884
:1004F00000F0E0FC10F0FF0013D10446139A944280
:1005000011D362A932A800F0DFFC10F0FF0008D17F
:100510000090014622AB62AA062000F04BFB00E0EF
:10052000E1206AB010BD04F1400393428CBF121B5E
:10053000402202A932A8144400F0C1FC10F0FF00D0
:10054000DCD0EEE74FF08053D3F83001A0F1080380
:1005500058425841704700004FF08053D3F8302183
:10056000082A06D1D3F83431032B02D8024AD05CD2
:1005700070470020704700BF960F000008B5FFF7D6
:10058000E1FF40B14FF080430022C3F80C21C3F8D3
:100590001021C3F83825FFF7D5FF002846D04FF0CB
:1005A0008052614BD2F80414C3F82015D2F8081415
:1005B000C3F82415D2F80C14C3F82815D2F8101477
:1005C000C3F82C15D2F81414C3F83015D2F8181447
:1005D000C3F83415D2F81C14C3F84015D2F820140F
:1005E000C3F84415D2F82414C3F84815D2F82814D7
:1005F000C3F84C15D2F82C14C3F85015D2F83014A7
:10060000C3F85415D2F83414C3F86015D2F838146E
:10061000C3F86415D2F83C14C3F86815D2F8401436
:10062000C3F86C15D2F84424C3F87025FFF794FF83
:1006300018B13E4B3E4AC3F88C26FFF78DFF18B128
:100640003C4BFB22C3F81825FFF786FF70B14FF033
:1006500080414FF08053D1F8E42ED3F8583222F085
:100660000F0203F00F031343C1F8E43EFFF774FFDA
:1006700020B1314B4FF40072C3F84026FFF762FF00
:1006800048B14FF08043D3F80024D20744BF6FF045
:100690000102C3F80024294AD2F8883043F47003D9
:1006A000C2F88830BFF34F8FBFF36F8F4FF0102326
:1006B000D3F80022002A03DBD3F80432002B2EDA11
:1006C0001F4B0122C3F80425D3F80024002AFBD0D5
:1006D0004FF010221221C2F80012D3F80024002A91
:1006E000FBD04FF010231222C3F80422144BD3F88E
:1006F0000024002AFBD00022C3F80425D3F80024EC
:10070000002AFBD0BFF34F8F0C490E4BCA6802F48E
:10071000E0621343CB60BFF34F8F00BFFDE70A4B8E
:100720000A4A1A6008BD00BF00C0004000500040E7
:100730004881030000F000400090024000ED00E01E
:1007400000E001400400FA05000000200090D00302
:10075000F0B50844002348F20506884203D113701F
:100760001B0A5370F0BD11F8017B082501242742B4
:100770004FEAD33C18BF4FF0010E4FEA430308BFC6
:100780004FF0000EE6459BB218BF73406400013D78
:10079000E4B2ECD1E1E7411C4078023851FA80F232
:1007A000C0B2FFF7D5BF08B502238B7007230846F8
:1007B0004B70FFF7F0FF002008BD08B580238B7059
:1007C00007234B70CB7803F00702062A084609D0AE
:1007D00003F00503052B07D167234370FFF7DBFF09
:1007E000002008BD2723F8E7E220FAE737B50578AF
:1007F000023D0446EDB201AA01462846FFF7A8FFD4
:100800009DF80420635D9A4209D12C449DF80500AF
:100810006378984214BFE520002003B030BDE52086
:10082000FBE70378042B24D1407811280ED8112837
:100830001DD8DFE800F01F091C101C121C14161C28
:100840001C1C1C1C1C181C1AD1207047FF2814BF2C
:10085000E120D4207047D2207047D6207047D7209F
:100860007047FA207047F4207047F3207047E1206A
:1008700070470020704700000B78F0B5032B2AD892
:10088000DFE803F02C021B1E184B13224FF6FF74F7
:100890004C801E1F0024E5B2AA420CD903EB84054C
:1008A000013416F824708742F5D16B884B804FF6DF
:1008B000FF72934217D1F220F0BD0D4B1422E5E7F1
:1008C0004C78282C4FF016020BD00A4B0A4D682C9E
:1008D00018BF2B46DAE700221346D7E7074B0E2254
:1008E000D4E7074BD2E70020E6E700BF9A0F0000ED
:1008F0001E1000001E1100006E100000E60F000028
:10090000C6100000F7B506460D4680780968FFF767
:10091000B3FF044660BB2B6868685F8800F03AF854
:10092000044610BB72786868314600F02FF8044620
:10093000D8B93846063600F045F82146C022304680
:1009400000F0F0FAC0236868ADF806300DF1060239
:10095000314600F01DF8044638B9BDF80630032BC7
:1009600009D8002B14BFE624E724686800F021F8BA
:10097000204603B0F0BD3046FFF738FF044600289C
:10098000F3D13046FFF74DFF0446EEE70369184701
:100990004369184710B5836904469847D02807D1A2
:1009A000192000F00FF8A3692046BDE81040184751
:1009B00010BD10B5C36998470446012000F002F845
:1009C000204610BD38B5044638B1044D45F0010548
:1009D0004FF47A40A847013CFAD138BD801100009D
:1009E00030B5039C00F003058CB1032D0FD010F03F
:1009F000020003F0070315BF43EAC10143EAC20343
:100A000041EA022223801CBF2280002030BDE22068
:100A1000FCE7000042B3154B1B685B685B685B78C2
:100A200073B9012805D0022806D0E8B9582313600D
:100A300070474023136001E02021116000207047BF
:100A40000128F6D0022802D070B98023EFE70729E9
:100A500001D82423EEE7082902D14FF4D073E9E747
:100A60000F2901D84823E5E7E22070470400002061
:100A70002DE9F043B7B005463E9F9DF8FC6097B363
:100A8000042E01D0202E2ED1DFF86080D8F800008F
:100A9000D0F800900DF10E0000902846FFF7A0FF5F
:100AA0000446E0B9202EBDF80E30ADF8143008BF72
:100AB00045F0800504A948468DF81350FFF773FEF2
:100AC000044660B9D8F8001004A8FFF71BFF0446DD
:100AD00028B932460DF11701384600F0FAF92046E0
:100AE00037B0BDE8F083E224F9E700BF040000203E
:100AF0002DE9F04F8FB0022802934FF0000381469A
:100B00008A461546059353D801D10F2950D8189B12
:100B10001BB900200FB0BDE8F08F029B002B47D01F
:100B200005AA51464846FFF775FF0028F2D1189BE9
:100B30005A19059B9A423BD84FEA5518202704467C
:100B400006460DF1180B202F08D1059BA3EB481387
:100B50001F2B9EBFAC19C4F382040427CDE900B754
:100B6000E3B25FFA88F251464846FFF781FF00285A
:100B7000D0D104EBC8039900B5EB830F189B88BF55
:100B8000681A9A1B3B1A9A4228BF1A46029B039284
:100B90000BEB0001981900F09CF9039A189B202F89
:100BA00016440CBF08F101080134B342CBD8B0E7BA
:100BB000E220AFE72DE9F041B2B00D46389E1C4669
:100BC000114672B3184F3B682022D3F800808DF88D
:100BD00003000DF10600ADF8045000F07AF92CB1D5
:100BE000402221460DF1260000F073F96946404687
:100BF000FFF7E3FD044680B939686846FFF782FED7
:100C0000044650B94EB19DF80630222B05D920225A
:100C10000DF10701304600F05CF9204632B0BDE826
:100C2000F081E224F9E700BF040000202DE9F04F35
:100C3000CFB001EB8213059300F1A8038346039321
:100C4000059B8B4202D14FB0BDE8F08F0EAA01F197
:100C50004000134601900878D870487898708878DA
:100C60005870C87803F8040B019804318842F2D117
:100C700010245168956B10464FEAB143043283EA61
:100C8000F11383EAD1030168106A08444FEAF54181
:100C900081EA7541034481EA952101340B44402CDB
:100CA000D363E6D10BF1880506AA11462B4653F80B
:100CB000040B41F8040B03989842F8D1D3680093D1
:100CC000D2E90007D2E90418D2E906EA274B966870
:100CD00002934FF000094FEA703487EA060307EAEF
:100CE000060C84EAB004034084EAB05483EA0C039F
:100CF000E3180493029B0EAC53F804CB54F829403C
:100D000002934FEAF12383EAB113A44483EA7163A7
:100D1000634401EA08042EEA010C8CEA040C9C44AA
:100D2000049C009B009609F10109E244B9F1400FCF
:100D300053445444F24612D1CDE90640CDE90A317C
:100D4000CDE90C8E089709962B6852F8041B0B44CA
:100D500045F8043B039BAB42F6D1019970E7C646C8
:100D60003E468846074619462046B4E788110000EB
:100D700010B5A8220021044600F0D4F80B4B0C4A11
:100D80000C490D48C4E922230C4BC4E924130C4B35
:100D9000C4E926030B4BC4F8A03003F17453A3F548
:100DA0002303A3F69243C4F8A43010BD85AE67BBFD
:100DB00067E6096A72F36E3C7F520E513AF54FA511
:100DC0008C68059BABD9831F2DE9F8430646406824
:100DD000C0F14004944228BF144608301546304400
:100DE0002246884600F075F873682B443F2B27464F
:100DF00002D87360BDE8F88306F108092C1B494648
:100E00003046A5090122FFF711FF2A4608EB07012A
:100E10003046FFF70BFF3268013502EB851504F011
:100E20003F0224F03F043C443560726008EB04014B
:100E30004846BDE8F84300F04CB8F8B50446D0E9A0
:100E40000060431C6360C0F137052318064405F0B9
:100E50003F058022093026600F461A7200212A1DA4
:100E6000204400F05FF862682A44A318F600310EAF
:100E70001973310C59730832310A99732046626034
:100E800004F10801DE739209FFF7D0FE88340023D5
:100E90003D1DEA18F818216802F8011D21688242F8
:100EA0004FEA11212160F6D10433202B04F1040410
:100EB000EFD1F8BD08B5FFF75BFF002008BD08B50E
:100EC000FFF782FF002008BD08B5FFF7B6FF00203E
:100ED00008BD844640EA010313F0030F18D184468D
:100EE000202A0BD32DE9F007B1E8F807A0E8F807AE
:100EF000A2F12002202AF7D2BDE8F007042A07D386
:100F000051F8043B40F8043BA2F10402042AF7D252
:100F1000002A05D011F8013B00F8013B013AF9D154
:100F2000604670478446002A2DD010F0030F04D08D
:100F300000F8011B013A26D0F7E7C9B241EA0121C6
:100F400041EA0141202A12D3A2F120022DE9F00347
:100F50000B460C460D460E460F4688468946A0E8CD
:100F6000FA03203AFBD2BDE8F00320320BD0042A6A
:100F700005D340F8041B043A05D0042AF9D200F83E
:0A0F8000011B013AFBD160467047E7
:100F8C0017180F100338FDD8704701000000280017
:100F9C000D00240014001C00320015000B00400052
:100FAC007300110017003000020017002000080029
:100FBC000E0016001D0001000300460030001B004F
:100FCC001700020005004700090041003C0020000A
:100FDC000A004500480012001A00280026001C00D8
:100FEC003E0015002B0011004500300002001700D8
:100FFC0018000800230016003C00010002001B0032
:10100C003200020005004700160020000C00120000
:10101C002A0028000D00240014001C00320043009C
:10102C003A0015000B00400073001100170030004F
:10103C0002001700200008000E0016001D00010021
:10104C000300460030001B0017000200050047009B
:10105C00090041003C0020000A0045004800120035
:10106C001A0051001B0028002800240019001C0045
:10107C00320043004B001500190040007300300093
:10108C0005005600A50017002300080037001600C5
:10109C001400460032001B001700020005008000FF
:1010AC0050007700FA004700240041007300200034
:1010BC000A004500690012002D0051001B00280099
:1010CC002800240019001C0032004300AC0015005D
:1010DC0023004000D700300005005600A500170083
:1010EC0023000800370016001400460032001B00D5
:1010FC001700020005008000A00077007102470075
:10110C002A004100DC0020000A00450027011200E3
:10111C002D0051001B0028002800240019001C0081
:10112C003200430013021500230040008D023000F2
:10113C0005005600A5001700230008003700160014
:10114C001400460032001B0017000200050080004E
:10115C00E0017700140947004B0041009902200080
:10116C000A0045003D0412002D00000000000000A4
:10117C00000000000338FDD870470000982F8A4209
:10118C0091443771CFFBC0B5A5DBB5E95BC25639CD
:10119C00F111F159A4823F92D55E1CAB98AA07D8E5
:1011AC00015B8312BE853124C37D0C55745DBE7208
:1011BC00FEB1DE80A706DC9B74F19BC1C1699BE488
:1011CC008647BEEFC69DC10FCCA10C246F2CE92D18
:1011DC00AA84744ADCA9B05CDA88F97652513E983C
:1011EC006DC631A8C82703B0C77F59BFF30BE0C643
:1011FC004791A7D55163CA0667292914850AB727D1
:10120C0038211B2EFC6D2C4D130D385354730A656D
:10121C00BB0A6A762EC9C281852C7292A1E8BFA244
:10122C004B661AA8708B4BC2A3516CC719E892D1AC
:10123C00240699D685350EF470A06A1016C1A4192F
:10124C00086C371E4C774827B5BCB034B30C1C392E
:10125C004AAAD84E4FCA9C5BF36F2E68EE828F74ED
:10126C006F63A5781478C8840802C78CFAFFBE9007
:0C127C00EB6C50A4F7A3F9BEF27871C629
:041288000090D003FF
:040000030000037581
:00000001FF
